{"contracts/NFTMarketplaceReward.sol":{"NFTMarketplaceReward":{"abi":[{"inputs":[{"internalType":"contract NFTMarketplace","name":"_marketplace","type":"address"}],"stateMutability":"nonpayable","type":"constructor"},{"anonymous":false,"inputs":[{"indexed":true,"internalType":"address","name":"seller","type":"address"},{"indexed":false,"internalType":"uint256","name":"reward","type":"uint256"}],"name":"SellerRewarded","type":"event"},{"inputs":[{"internalType":"address","name":"seller","type":"address"}],"name":"checkAndReward","outputs":[],"stateMutability":"nonpayable","type":"function"}],"evm":{"bytecode":{"linkReferences":{},"object":"608060405234801561001057600080fd5b506040516105c83803806105c883398101604081905261002f91610054565b600080546001600160a01b0319166001600160a01b0392909216919091179055610082565b600060208284031215610065578081fd5b81516001600160a01b038116811461007b578182fd5b9392505050565b610537806100916000396000f3fe608060405234801561001057600080fd5b506004361061002b5760003560e01c80639f38e7dd14610030575b600080fd5b61004361003e3660046102c8565b610045565b005b6000805460405163570c765b60e11b81526001600160a01b0384811660048301529091169063ae18ecb69060240160006040518083038186803b15801561008b57600080fd5b505afa15801561009f573d6000803e3d6000fd5b505050506040513d6000823e601f3d908101601f191682016040526100c791908101906102eb565b516001600160a01b0383166000908152600160205260409020549091506100ef600a82610467565b6100fa600a84610467565b11156102c357600061010d600a83610467565b610118600a85610467565b61012291906104a6565b61012d90600a610487565b6001600160a01b038086166000818152600160209081526040808320899055915482516368f1945f60e01b8152925195965092946108fc9493909316926368f1945f926004808201939291829003018186803b15801561018c57600080fd5b505afa1580156101a0573d6000803e3d6000fd5b505050506040513d601f19601f820116820180604052508101906101c491906103f5565b6101ce9084610487565b6040518115909202916000818181858888f193505050501580156101f6573d6000803e3d6000fd5b50836001600160a01b03167f97574ec65b2fcfc0a5e16b2fcb4a8bf3c0b62146b225c4f8a8e6be101682048460008054906101000a90046001600160a01b03166001600160a01b03166368f1945f6040518163ffffffff1660e01b815260040160206040518083038186803b15801561026e57600080fd5b505afa158015610282573d6000803e3d6000fd5b505050506040513d601f19601f820116820180604052508101906102a691906103f5565b6102b09084610487565b60405190815260200160405180910390a2505b505050565b6000602082840312156102d9578081fd5b81356102e4816104e9565b9392505050565b600060208083850312156102fd578182fd5b825167ffffffffffffffff80821115610314578384fd5b818501915085601f830112610327578384fd5b815181811115610339576103396104d3565b610347848260051b01610436565b818152848101925083850160a0808402860187018a1015610366578788fd5b8795505b838610156103e75780828b031215610380578788fd5b61038861040d565b8251815287830151610399816104e9565b818901526040838101516103ac816104e9565b908201526060838101519082015260808084015180151581146103cd578a8bfd5b90820152855260019590950194938601939081019061036a565b509098975050505050505050565b600060208284031215610406578081fd5b5051919050565b60405160a0810167ffffffffffffffff81118282101715610430576104306104d3565b60405290565b604051601f8201601f1916810167ffffffffffffffff8111828210171561045f5761045f6104d3565b604052919050565b60008261048257634e487b7160e01b81526012600452602481fd5b500490565b60008160001904831182151516156104a1576104a16104bd565b500290565b6000828210156104b8576104b86104bd565b500390565b634e487b7160e01b600052601160045260246000fd5b634e487b7160e01b600052604160045260246000fd5b6001600160a01b03811681146104fe57600080fd5b5056fea264697066735822122044e7b35a9df503b14c356a450085b0d0f418e3ba1fcdaea551d9ff401212f5f064736f6c63430008040033","opcodes":"PUSH1 0x80 PUSH1 0x40 MSTORE CALLVALUE DUP1 ISZERO PUSH2 0x10 JUMPI PUSH1 0x0 DUP1 REVERT JUMPDEST POP PUSH1 0x40 MLOAD PUSH2 0x5C8 CODESIZE SUB DUP1 PUSH2 0x5C8 DUP4 CODECOPY DUP2 ADD PUSH1 0x40 DUP2 SWAP1 MSTORE PUSH2 0x2F SWAP2 PUSH2 0x54 JUMP JUMPDEST PUSH1 0x0 DUP1 SLOAD PUSH1 0x1 PUSH1 0x1 PUSH1 0xA0 SHL SUB NOT AND PUSH1 0x1 PUSH1 0x1 PUSH1 0xA0 SHL SUB SWAP3 SWAP1 SWAP3 AND SWAP2 SWAP1 SWAP2 OR SWAP1 SSTORE PUSH2 0x82 JUMP JUMPDEST PUSH1 0x0 PUSH1 0x20 DUP3 DUP5 SUB SLT ISZERO PUSH2 0x65 JUMPI DUP1 DUP2 REVERT JUMPDEST DUP2 MLOAD PUSH1 0x1 PUSH1 0x1 PUSH1 0xA0 SHL SUB DUP2 AND DUP2 EQ PUSH2 0x7B JUMPI DUP2 DUP3 REVERT JUMPDEST SWAP4 SWAP3 POP POP POP JUMP JUMPDEST PUSH2 0x537 DUP1 PUSH2 0x91 PUSH1 0x0 CODECOPY PUSH1 0x0 RETURN INVALID PUSH1 0x80 PUSH1 0x40 MSTORE CALLVALUE DUP1 ISZERO PUSH2 0x10 JUMPI PUSH1 0x0 DUP1 REVERT JUMPDEST POP PUSH1 0x4 CALLDATASIZE LT PUSH2 0x2B JUMPI PUSH1 0x0 CALLDATALOAD PUSH1 0xE0 SHR DUP1 PUSH4 0x9F38E7DD EQ PUSH2 0x30 JUMPI JUMPDEST PUSH1 0x0 DUP1 REVERT JUMPDEST PUSH2 0x43 PUSH2 0x3E CALLDATASIZE PUSH1 0x4 PUSH2 0x2C8 JUMP JUMPDEST PUSH2 0x45 JUMP JUMPDEST STOP JUMPDEST PUSH1 0x0 DUP1 SLOAD PUSH1 0x40 MLOAD PUSH4 0x570C765B PUSH1 0xE1 SHL DUP2 MSTORE PUSH1 0x1 PUSH1 0x1 PUSH1 0xA0 SHL SUB DUP5 DUP2 AND PUSH1 0x4 DUP4 ADD MSTORE SWAP1 SWAP2 AND SWAP1 PUSH4 0xAE18ECB6 SWAP1 PUSH1 0x24 ADD PUSH1 0x0 PUSH1 0x40 MLOAD DUP1 DUP4 SUB DUP2 DUP7 DUP1 EXTCODESIZE ISZERO DUP1 ISZERO PUSH2 0x8B JUMPI PUSH1 0x0 DUP1 REVERT JUMPDEST POP GAS STATICCALL ISZERO DUP1 ISZERO PUSH2 0x9F JUMPI RETURNDATASIZE PUSH1 0x0 DUP1 RETURNDATACOPY RETURNDATASIZE PUSH1 0x0 REVERT JUMPDEST POP POP POP POP PUSH1 0x40 MLOAD RETURNDATASIZE PUSH1 0x0 DUP3 RETURNDATACOPY PUSH1 0x1F RETURNDATASIZE SWAP1 DUP2 ADD PUSH1 0x1F NOT AND DUP3 ADD PUSH1 0x40 MSTORE PUSH2 0xC7 SWAP2 SWAP1 DUP2 ADD SWAP1 PUSH2 0x2EB JUMP JUMPDEST MLOAD PUSH1 0x1 PUSH1 0x1 PUSH1 0xA0 SHL SUB DUP4 AND PUSH1 0x0 SWAP1 DUP2 MSTORE PUSH1 0x1 PUSH1 0x20 MSTORE PUSH1 0x40 SWAP1 KECCAK256 SLOAD SWAP1 SWAP2 POP PUSH2 0xEF PUSH1 0xA DUP3 PUSH2 0x467 JUMP JUMPDEST PUSH2 0xFA PUSH1 0xA DUP5 PUSH2 0x467 JUMP JUMPDEST GT ISZERO PUSH2 0x2C3 JUMPI PUSH1 0x0 PUSH2 0x10D PUSH1 0xA DUP4 PUSH2 0x467 JUMP JUMPDEST PUSH2 0x118 PUSH1 0xA DUP6 PUSH2 0x467 JUMP JUMPDEST PUSH2 0x122 SWAP2 SWAP1 PUSH2 0x4A6 JUMP JUMPDEST PUSH2 0x12D SWAP1 PUSH1 0xA PUSH2 0x487 JUMP JUMPDEST PUSH1 0x1 PUSH1 0x1 PUSH1 0xA0 SHL SUB DUP1 DUP7 AND PUSH1 0x0 DUP2 DUP2 MSTORE PUSH1 0x1 PUSH1 0x20 SWAP1 DUP2 MSTORE PUSH1 0x40 DUP1 DUP4 KECCAK256 DUP10 SWAP1 SSTORE SWAP2 SLOAD DUP3 MLOAD PUSH4 0x68F1945F PUSH1 0xE0 SHL DUP2 MSTORE SWAP3 MLOAD SWAP6 SWAP7 POP SWAP3 SWAP5 PUSH2 0x8FC SWAP5 SWAP4 SWAP1 SWAP4 AND SWAP3 PUSH4 0x68F1945F SWAP3 PUSH1 0x4 DUP1 DUP3 ADD SWAP4 SWAP3 SWAP2 DUP3 SWAP1 SUB ADD DUP2 DUP7 DUP1 EXTCODESIZE ISZERO DUP1 ISZERO PUSH2 0x18C JUMPI PUSH1 0x0 DUP1 REVERT JUMPDEST POP GAS STATICCALL ISZERO DUP1 ISZERO PUSH2 0x1A0 JUMPI RETURNDATASIZE PUSH1 0x0 DUP1 RETURNDATACOPY RETURNDATASIZE PUSH1 0x0 REVERT JUMPDEST POP POP POP POP PUSH1 0x40 MLOAD RETURNDATASIZE PUSH1 0x1F NOT PUSH1 0x1F DUP3 ADD AND DUP3 ADD DUP1 PUSH1 0x40 MSTORE POP DUP2 ADD SWAP1 PUSH2 0x1C4 SWAP2 SWAP1 PUSH2 0x3F5 JUMP JUMPDEST PUSH2 0x1CE SWAP1 DUP5 PUSH2 0x487 JUMP JUMPDEST PUSH1 0x40 MLOAD DUP2 ISZERO SWAP1 SWAP3 MUL SWAP2 PUSH1 0x0 DUP2 DUP2 DUP2 DUP6 DUP9 DUP9 CALL SWAP4 POP POP POP POP ISZERO DUP1 ISZERO PUSH2 0x1F6 JUMPI RETURNDATASIZE PUSH1 0x0 DUP1 RETURNDATACOPY RETURNDATASIZE PUSH1 0x0 REVERT JUMPDEST POP DUP4 PUSH1 0x1 PUSH1 0x1 PUSH1 0xA0 SHL SUB AND PUSH32 0x97574EC65B2FCFC0A5E16B2FCB4A8BF3C0B62146B225C4F8A8E6BE1016820484 PUSH1 0x0 DUP1 SLOAD SWAP1 PUSH2 0x100 EXP SWAP1 DIV PUSH1 0x1 PUSH1 0x1 PUSH1 0xA0 SHL SUB AND PUSH1 0x1 PUSH1 0x1 PUSH1 0xA0 SHL SUB AND PUSH4 0x68F1945F PUSH1 0x40 MLOAD DUP2 PUSH4 0xFFFFFFFF AND PUSH1 0xE0 SHL DUP2 MSTORE PUSH1 0x4 ADD PUSH1 0x20 PUSH1 0x40 MLOAD DUP1 DUP4 SUB DUP2 DUP7 DUP1 EXTCODESIZE ISZERO DUP1 ISZERO PUSH2 0x26E JUMPI PUSH1 0x0 DUP1 REVERT JUMPDEST POP GAS STATICCALL ISZERO DUP1 ISZERO PUSH2 0x282 JUMPI RETURNDATASIZE PUSH1 0x0 DUP1 RETURNDATACOPY RETURNDATASIZE PUSH1 0x0 REVERT JUMPDEST POP POP POP POP PUSH1 0x40 MLOAD RETURNDATASIZE PUSH1 0x1F NOT PUSH1 0x1F DUP3 ADD AND DUP3 ADD DUP1 PUSH1 0x40 MSTORE POP DUP2 ADD SWAP1 PUSH2 0x2A6 SWAP2 SWAP1 PUSH2 0x3F5 JUMP JUMPDEST PUSH2 0x2B0 SWAP1 DUP5 PUSH2 0x487 JUMP JUMPDEST PUSH1 0x40 MLOAD SWAP1 DUP2 MSTORE PUSH1 0x20 ADD PUSH1 0x40 MLOAD DUP1 SWAP2 SUB SWAP1 LOG2 POP JUMPDEST POP POP POP JUMP JUMPDEST PUSH1 0x0 PUSH1 0x20 DUP3 DUP5 SUB SLT ISZERO PUSH2 0x2D9 JUMPI DUP1 DUP2 REVERT JUMPDEST DUP2 CALLDATALOAD PUSH2 0x2E4 DUP2 PUSH2 0x4E9 JUMP JUMPDEST SWAP4 SWAP3 POP POP POP JUMP JUMPDEST PUSH1 0x0 PUSH1 0x20 DUP1 DUP4 DUP6 SUB SLT ISZERO PUSH2 0x2FD JUMPI DUP2 DUP3 REVERT JUMPDEST DUP3 MLOAD PUSH8 0xFFFFFFFFFFFFFFFF DUP1 DUP3 GT ISZERO PUSH2 0x314 JUMPI DUP4 DUP5 REVERT JUMPDEST DUP2 DUP6 ADD SWAP2 POP DUP6 PUSH1 0x1F DUP4 ADD SLT PUSH2 0x327 JUMPI DUP4 DUP5 REVERT JUMPDEST DUP2 MLOAD DUP2 DUP2 GT ISZERO PUSH2 0x339 JUMPI PUSH2 0x339 PUSH2 0x4D3 JUMP JUMPDEST PUSH2 0x347 DUP5 DUP3 PUSH1 0x5 SHL ADD PUSH2 0x436 JUMP JUMPDEST DUP2 DUP2 MSTORE DUP5 DUP2 ADD SWAP3 POP DUP4 DUP6 ADD PUSH1 0xA0 DUP1 DUP5 MUL DUP7 ADD DUP8 ADD DUP11 LT ISZERO PUSH2 0x366 JUMPI DUP8 DUP9 REVERT JUMPDEST DUP8 SWAP6 POP JUMPDEST DUP4 DUP7 LT ISZERO PUSH2 0x3E7 JUMPI DUP1 DUP3 DUP12 SUB SLT ISZERO PUSH2 0x380 JUMPI DUP8 DUP9 REVERT JUMPDEST PUSH2 0x388 PUSH2 0x40D JUMP JUMPDEST DUP3 MLOAD DUP2 MSTORE DUP8 DUP4 ADD MLOAD PUSH2 0x399 DUP2 PUSH2 0x4E9 JUMP JUMPDEST DUP2 DUP10 ADD MSTORE PUSH1 0x40 DUP4 DUP2 ADD MLOAD PUSH2 0x3AC DUP2 PUSH2 0x4E9 JUMP JUMPDEST SWAP1 DUP3 ADD MSTORE PUSH1 0x60 DUP4 DUP2 ADD MLOAD SWAP1 DUP3 ADD MSTORE PUSH1 0x80 DUP1 DUP5 ADD MLOAD DUP1 ISZERO ISZERO DUP2 EQ PUSH2 0x3CD JUMPI DUP11 DUP12 REVERT JUMPDEST SWAP1 DUP3 ADD MSTORE DUP6 MSTORE PUSH1 0x1 SWAP6 SWAP1 SWAP6 ADD SWAP5 SWAP4 DUP7 ADD SWAP4 SWAP1 DUP2 ADD SWAP1 PUSH2 0x36A JUMP JUMPDEST POP SWAP1 SWAP9 SWAP8 POP POP POP POP POP POP POP POP JUMP JUMPDEST PUSH1 0x0 PUSH1 0x20 DUP3 DUP5 SUB SLT ISZERO PUSH2 0x406 JUMPI DUP1 DUP2 REVERT JUMPDEST POP MLOAD SWAP2 SWAP1 POP JUMP JUMPDEST PUSH1 0x40 MLOAD PUSH1 0xA0 DUP2 ADD PUSH8 0xFFFFFFFFFFFFFFFF DUP2 GT DUP3 DUP3 LT OR ISZERO PUSH2 0x430 JUMPI PUSH2 0x430 PUSH2 0x4D3 JUMP JUMPDEST PUSH1 0x40 MSTORE SWAP1 JUMP JUMPDEST PUSH1 0x40 MLOAD PUSH1 0x1F DUP3 ADD PUSH1 0x1F NOT AND DUP2 ADD PUSH8 0xFFFFFFFFFFFFFFFF DUP2 GT DUP3 DUP3 LT OR ISZERO PUSH2 0x45F JUMPI PUSH2 0x45F PUSH2 0x4D3 JUMP JUMPDEST PUSH1 0x40 MSTORE SWAP2 SWAP1 POP JUMP JUMPDEST PUSH1 0x0 DUP3 PUSH2 0x482 JUMPI PUSH4 0x4E487B71 PUSH1 0xE0 SHL DUP2 MSTORE PUSH1 0x12 PUSH1 0x4 MSTORE PUSH1 0x24 DUP2 REVERT JUMPDEST POP DIV SWAP1 JUMP JUMPDEST PUSH1 0x0 DUP2 PUSH1 0x0 NOT DIV DUP4 GT DUP3 ISZERO ISZERO AND ISZERO PUSH2 0x4A1 JUMPI PUSH2 0x4A1 PUSH2 0x4BD JUMP JUMPDEST POP MUL SWAP1 JUMP JUMPDEST PUSH1 0x0 DUP3 DUP3 LT ISZERO PUSH2 0x4B8 JUMPI PUSH2 0x4B8 PUSH2 0x4BD JUMP JUMPDEST POP SUB SWAP1 JUMP JUMPDEST PUSH4 0x4E487B71 PUSH1 0xE0 SHL PUSH1 0x0 MSTORE PUSH1 0x11 PUSH1 0x4 MSTORE PUSH1 0x24 PUSH1 0x0 REVERT JUMPDEST PUSH4 0x4E487B71 PUSH1 0xE0 SHL PUSH1 0x0 MSTORE PUSH1 0x41 PUSH1 0x4 MSTORE PUSH1 0x24 PUSH1 0x0 REVERT JUMPDEST PUSH1 0x1 PUSH1 0x1 PUSH1 0xA0 SHL SUB DUP2 AND DUP2 EQ PUSH2 0x4FE JUMPI PUSH1 0x0 DUP1 REVERT JUMPDEST POP JUMP INVALID LOG2 PUSH5 0x6970667358 0x22 SLT KECCAK256 DIFFICULTY 0xE7 0xB3 GAS SWAP14 CREATE2 SUB 0xB1 0x4C CALLDATALOAD PUSH11 0x450085B0D0F418E3BA1FCD 0xAE 0xA5 MLOAD 0xD9 SELFDESTRUCT BLOCKHASH SLT SLT CREATE2 CREATE PUSH5 0x736F6C6343 STOP ADDMOD DIV STOP CALLER "},"methodIdentifiers":{"checkAndReward(address)":"9f38e7dd"}}}}}