{
  "_format": "hh-sol-artifact-1",
  "contractName": "NFTMarketplace",
  "sourceName": "contracts/NFTMarketplace.sol",
  "abi": [
    {
      "inputs": [],
      "stateMutability": "nonpayable",
      "type": "constructor"
    },
    {
      "anonymous": false,
      "inputs": [
        {
          "indexed": true,
          "internalType": "address",
          "name": "owner",
          "type": "address"
        },
        {
          "indexed": true,
          "internalType": "address",
          "name": "approved",
          "type": "address"
        },
        {
          "indexed": true,
          "internalType": "uint256",
          "name": "tokenId",
          "type": "uint256"
        }
      ],
      "name": "Approval",
      "type": "event"
    },
    {
      "anonymous": false,
      "inputs": [
        {
          "indexed": true,
          "internalType": "address",
          "name": "owner",
          "type": "address"
        },
        {
          "indexed": true,
          "internalType": "address",
          "name": "operator",
          "type": "address"
        },
        {
          "indexed": false,
          "internalType": "bool",
          "name": "approved",
          "type": "bool"
        }
      ],
      "name": "ApprovalForAll",
      "type": "event"
    },
    {
      "anonymous": false,
      "inputs": [
        {
          "indexed": false,
          "internalType": "uint256",
          "name": "_fromTokenId",
          "type": "uint256"
        },
        {
          "indexed": false,
          "internalType": "uint256",
          "name": "_toTokenId",
          "type": "uint256"
        }
      ],
      "name": "BatchMetadataUpdate",
      "type": "event"
    },
    {
      "anonymous": false,
      "inputs": [
        {
          "indexed": false,
          "internalType": "uint256",
          "name": "_tokenId",
          "type": "uint256"
        }
      ],
      "name": "MetadataUpdate",
      "type": "event"
    },
    {
      "anonymous": false,
      "inputs": [
        {
          "indexed": true,
          "internalType": "uint256",
          "name": "tokenId",
          "type": "uint256"
        },
        {
          "indexed": false,
          "internalType": "address",
          "name": "owner",
          "type": "address"
        },
        {
          "indexed": false,
          "internalType": "address",
          "name": "seller",
          "type": "address"
        },
        {
          "indexed": false,
          "internalType": "uint256",
          "name": "price",
          "type": "uint256"
        },
        {
          "indexed": false,
          "internalType": "bool",
          "name": "currentlyListed",
          "type": "bool"
        }
      ],
      "name": "TokenListedSuccess",
      "type": "event"
    },
    {
      "anonymous": false,
      "inputs": [
        {
          "indexed": true,
          "internalType": "address",
          "name": "from",
          "type": "address"
        },
        {
          "indexed": true,
          "internalType": "address",
          "name": "to",
          "type": "address"
        },
        {
          "indexed": true,
          "internalType": "uint256",
          "name": "tokenId",
          "type": "uint256"
        }
      ],
      "name": "Transfer",
      "type": "event"
    },
    {
      "inputs": [
        {
          "internalType": "uint256",
          "name": "a",
          "type": "uint256"
        },
        {
          "internalType": "uint256",
          "name": "b",
          "type": "uint256"
        }
      ],
      "name": "addNumber",
      "outputs": [
        {
          "internalType": "uint256",
          "name": "",
          "type": "uint256"
        }
      ],
      "stateMutability": "pure",
      "type": "function"
    },
    {
      "inputs": [
        {
          "internalType": "address",
          "name": "to",
          "type": "address"
        },
        {
          "internalType": "uint256",
          "name": "tokenId",
          "type": "uint256"
        }
      ],
      "name": "approve",
      "outputs": [],
      "stateMutability": "nonpayable",
      "type": "function"
    },
    {
      "inputs": [
        {
          "internalType": "address",
          "name": "owner",
          "type": "address"
        }
      ],
      "name": "balanceOf",
      "outputs": [
        {
          "internalType": "uint256",
          "name": "",
          "type": "uint256"
        }
      ],
      "stateMutability": "view",
      "type": "function"
    },
    {
      "inputs": [
        {
          "internalType": "string",
          "name": "tokenURI",
          "type": "string"
        },
        {
          "internalType": "uint256",
          "name": "price",
          "type": "uint256"
        }
      ],
      "name": "createToken",
      "outputs": [
        {
          "internalType": "uint256",
          "name": "",
          "type": "uint256"
        }
      ],
      "stateMutability": "payable",
      "type": "function"
    },
    {
      "inputs": [
        {
          "internalType": "uint256",
          "name": "tokenId",
          "type": "uint256"
        }
      ],
      "name": "executeSale",
      "outputs": [],
      "stateMutability": "payable",
      "type": "function"
    },
    {
      "inputs": [],
      "name": "getAllNFTs",
      "outputs": [
        {
          "components": [
            {
              "internalType": "uint256",
              "name": "tokenId",
              "type": "uint256"
            },
            {
              "internalType": "address payable",
              "name": "owner",
              "type": "address"
            },
            {
              "internalType": "address payable",
              "name": "seller",
              "type": "address"
            },
            {
              "internalType": "uint256",
              "name": "price",
              "type": "uint256"
            },
            {
              "internalType": "bool",
              "name": "currentlyListed",
              "type": "bool"
            }
          ],
          "internalType": "struct NFTMarketplace.ListedToken[]",
          "name": "",
          "type": "tuple[]"
        }
      ],
      "stateMutability": "view",
      "type": "function"
    },
    {
      "inputs": [
        {
          "internalType": "uint256",
          "name": "tokenId",
          "type": "uint256"
        }
      ],
      "name": "getApproved",
      "outputs": [
        {
          "internalType": "address",
          "name": "",
          "type": "address"
        }
      ],
      "stateMutability": "view",
      "type": "function"
    },
    {
      "inputs": [],
      "name": "getCurrentToken",
      "outputs": [
        {
          "internalType": "uint256",
          "name": "",
          "type": "uint256"
        }
      ],
      "stateMutability": "view",
      "type": "function"
    },
    {
      "inputs": [],
      "name": "getLatestIdToListedToken",
      "outputs": [
        {
          "components": [
            {
              "internalType": "uint256",
              "name": "tokenId",
              "type": "uint256"
            },
            {
              "internalType": "address payable",
              "name": "owner",
              "type": "address"
            },
            {
              "internalType": "address payable",
              "name": "seller",
              "type": "address"
            },
            {
              "internalType": "uint256",
              "name": "price",
              "type": "uint256"
            },
            {
              "internalType": "bool",
              "name": "currentlyListed",
              "type": "bool"
            }
          ],
          "internalType": "struct NFTMarketplace.ListedToken",
          "name": "",
          "type": "tuple"
        }
      ],
      "stateMutability": "view",
      "type": "function"
    },
    {
      "inputs": [],
      "name": "getListPrice",
      "outputs": [
        {
          "internalType": "uint256",
          "name": "",
          "type": "uint256"
        }
      ],
      "stateMutability": "view",
      "type": "function"
    },
    {
      "inputs": [
        {
          "internalType": "uint256",
          "name": "tokenId",
          "type": "uint256"
        }
      ],
      "name": "getListedTokenForId",
      "outputs": [
        {
          "components": [
            {
              "internalType": "uint256",
              "name": "tokenId",
              "type": "uint256"
            },
            {
              "internalType": "address payable",
              "name": "owner",
              "type": "address"
            },
            {
              "internalType": "address payable",
              "name": "seller",
              "type": "address"
            },
            {
              "internalType": "uint256",
              "name": "price",
              "type": "uint256"
            },
            {
              "internalType": "bool",
              "name": "currentlyListed",
              "type": "bool"
            }
          ],
          "internalType": "struct NFTMarketplace.ListedToken",
          "name": "",
          "type": "tuple"
        }
      ],
      "stateMutability": "view",
      "type": "function"
    },
    {
      "inputs": [],
      "name": "getMyNFTs",
      "outputs": [
        {
          "components": [
            {
              "internalType": "uint256",
              "name": "tokenId",
              "type": "uint256"
            },
            {
              "internalType": "address payable",
              "name": "owner",
              "type": "address"
            },
            {
              "internalType": "address payable",
              "name": "seller",
              "type": "address"
            },
            {
              "internalType": "uint256",
              "name": "price",
              "type": "uint256"
            },
            {
              "internalType": "bool",
              "name": "currentlyListed",
              "type": "bool"
            }
          ],
          "internalType": "struct NFTMarketplace.ListedToken[]",
          "name": "",
          "type": "tuple[]"
        }
      ],
      "stateMutability": "view",
      "type": "function"
    },
    {
      "inputs": [
        {
          "internalType": "address",
          "name": "owner",
          "type": "address"
        },
        {
          "internalType": "address",
          "name": "operator",
          "type": "address"
        }
      ],
      "name": "isApprovedForAll",
      "outputs": [
        {
          "internalType": "bool",
          "name": "",
          "type": "bool"
        }
      ],
      "stateMutability": "view",
      "type": "function"
    },
    {
      "inputs": [],
      "name": "marketplaceReward",
      "outputs": [
        {
          "internalType": "contract NFTMarketplaceReward",
          "name": "",
          "type": "address"
        }
      ],
      "stateMutability": "view",
      "type": "function"
    },
    {
      "inputs": [],
      "name": "name",
      "outputs": [
        {
          "internalType": "string",
          "name": "",
          "type": "string"
        }
      ],
      "stateMutability": "view",
      "type": "function"
    },
    {
      "inputs": [
        {
          "internalType": "uint256",
          "name": "tokenId",
          "type": "uint256"
        }
      ],
      "name": "ownerOf",
      "outputs": [
        {
          "internalType": "address",
          "name": "",
          "type": "address"
        }
      ],
      "stateMutability": "view",
      "type": "function"
    },
    {
      "inputs": [
        {
          "internalType": "address",
          "name": "from",
          "type": "address"
        },
        {
          "internalType": "address",
          "name": "to",
          "type": "address"
        },
        {
          "internalType": "uint256",
          "name": "tokenId",
          "type": "uint256"
        }
      ],
      "name": "safeTransferFrom",
      "outputs": [],
      "stateMutability": "nonpayable",
      "type": "function"
    },
    {
      "inputs": [
        {
          "internalType": "address",
          "name": "from",
          "type": "address"
        },
        {
          "internalType": "address",
          "name": "to",
          "type": "address"
        },
        {
          "internalType": "uint256",
          "name": "tokenId",
          "type": "uint256"
        },
        {
          "internalType": "bytes",
          "name": "data",
          "type": "bytes"
        }
      ],
      "name": "safeTransferFrom",
      "outputs": [],
      "stateMutability": "nonpayable",
      "type": "function"
    },
    {
      "inputs": [
        {
          "internalType": "address",
          "name": "operator",
          "type": "address"
        },
        {
          "internalType": "bool",
          "name": "approved",
          "type": "bool"
        }
      ],
      "name": "setApprovalForAll",
      "outputs": [],
      "stateMutability": "nonpayable",
      "type": "function"
    },
    {
      "inputs": [
        {
          "internalType": "bytes4",
          "name": "interfaceId",
          "type": "bytes4"
        }
      ],
      "name": "supportsInterface",
      "outputs": [
        {
          "internalType": "bool",
          "name": "",
          "type": "bool"
        }
      ],
      "stateMutability": "view",
      "type": "function"
    },
    {
      "inputs": [],
      "name": "symbol",
      "outputs": [
        {
          "internalType": "string",
          "name": "",
          "type": "string"
        }
      ],
      "stateMutability": "view",
      "type": "function"
    },
    {
      "inputs": [
        {
          "internalType": "uint256",
          "name": "tokenId",
          "type": "uint256"
        }
      ],
      "name": "tokenURI",
      "outputs": [
        {
          "internalType": "string",
          "name": "",
          "type": "string"
        }
      ],
      "stateMutability": "view",
      "type": "function"
    },
    {
      "inputs": [
        {
          "internalType": "address",
          "name": "from",
          "type": "address"
        },
        {
          "internalType": "address",
          "name": "to",
          "type": "address"
        },
        {
          "internalType": "uint256",
          "name": "tokenId",
          "type": "uint256"
        }
      ],
      "name": "transferFrom",
      "outputs": [],
      "stateMutability": "nonpayable",
      "type": "function"
    },
    {
      "inputs": [
        {
          "internalType": "uint256",
          "name": "_listPrice",
          "type": "uint256"
        }
      ],
      "name": "updateListPrice",
      "outputs": [],
      "stateMutability": "payable",
      "type": "function"
    }
  ],
  "bytecode": "0x608060405266b1a2bc2ec50000600b553480156200001c57600080fd5b50604080518082018252600e81526d4e46544d61726b6574706c61636560901b6020808301918252835180850190945260048452634e46544d60e01b9084015281519192916200006f91600091620000ec565b50805162000085906001906020840190620000ec565b5050600a80546001600160a01b0319163317905550604051620000a8906200017b565b604051809103906000f080158015620000c5573d6000803e3d6000fd5b50600980546001600160a01b0319166001600160a01b0392909216919091179055620001dd565b828054620000fa90620001a0565b90600052602060002090601f0160209004810192826200011e576000855562000169565b82601f106200013957805160ff191683800117855562000169565b8280016001018555821562000169579182015b82811115620001695782518255916020019190600101906200014c565b506200017792915062000189565b5090565b610157806200254083390190565b5b808211156200017757600081556001016200018a565b600181811c90821680620001b557607f821691505b60208210811415620001d757634e487b7160e01b600052602260045260246000fd5b50919050565b61235380620001ed6000396000f3fe60806040526004361061014b5760003560e01c80638e264590116100b6578063c322579c1161006f578063c322579c146103ae578063c87b56dd146103c1578063d1a88ae5146103e1578063e0391b09146103f6578063e985e9c51461040b578063ef2d17461461045457600080fd5b80638e264590146102f957806395d89b41146103265780639b1225c41461033b578063a22cb4651461034e578063a7e924fa1461036e578063b88d4fde1461038e57600080fd5b806342842e0e1161010857806342842e0e1461024f578063629cb2e41461026f5780636352211e1461029157806368f1945f146102b157806370a08231146102c657806372b3b620146102e657600080fd5b806301ffc9a71461015057806306fdde0314610185578063081812fc146101a7578063095ea7b3146101df5780630f3d02041461020157806323b872dd1461022f575b600080fd5b34801561015c57600080fd5b5061017061016b366004611f37565b610469565b60405190151581526020015b60405180910390f35b34801561019157600080fd5b5061019a610494565b60405161017c919061213c565b3480156101b357600080fd5b506101c76101c2366004611fc5565b610526565b6040516001600160a01b03909116815260200161017c565b3480156101eb57600080fd5b506101ff6101fa366004611f0e565b61054d565b005b34801561020d57600080fd5b5061022161021c366004611ff5565b610668565b60405190815260200161017c565b34801561023b57600080fd5b506101ff61024a366004611e20565b61067b565b34801561025b57600080fd5b506101ff61026a366004611e20565b6106ac565b34801561027b57600080fd5b506102846106c7565b60405161017c91906120ee565b34801561029d57600080fd5b506101c76102ac366004611fc5565b61090a565b3480156102bd57600080fd5b5061022161096a565b3480156102d257600080fd5b506102216102e1366004611dd4565b610a1a565b6102216102f4366004611f6f565b610aa0565b34801561030557600080fd5b50610319610314366004611fc5565b610c7f565b60405161017c9190612233565b34801561033257600080fd5b5061019a610ce9565b6101ff610349366004611fc5565b610cf8565b34801561035a57600080fd5b506101ff610369366004611ed4565b610e5c565b34801561037a57600080fd5b506009546101c7906001600160a01b031681565b34801561039a57600080fd5b506101ff6103a9366004611e5b565b610e6b565b6101ff6103bc366004611fc5565b610e9d565b3480156103cd57600080fd5b5061019a6103dc366004611fc5565b610f0a565b3480156103ed57600080fd5b50610319611013565b34801561040257600080fd5b5061028461108a565b34801561041757600080fd5b50610170610426366004611dee565b6001600160a01b03918216600090815260056020908152604080832093909416825291909152205460ff1690565b34801561046057600080fd5b506102216111d0565b60006001600160e01b03198216632483248360e11b148061048e575061048e826111e0565b92915050565b6060600080546104a390612285565b80601f01602080910402602001604051908101604052809291908181526020018280546104cf90612285565b801561051c5780601f106104f15761010080835404028352916020019161051c565b820191906000526020600020905b8154815290600101906020018083116104ff57829003601f168201915b5050505050905090565b600061053182611230565b506000908152600460205260409020546001600160a01b031690565b60006105588261090a565b9050806001600160a01b0316836001600160a01b031614156105cb5760405162461bcd60e51b815260206004820152602160248201527f4552433732313a20617070726f76616c20746f2063757272656e74206f776e656044820152603960f91b60648201526084015b60405180910390fd5b336001600160a01b03821614806105e757506105e78133610426565b6106595760405162461bcd60e51b815260206004820152603d60248201527f4552433732313a20617070726f76652063616c6c6572206973206e6f7420746f60448201527f6b656e206f776e6572206f7220617070726f76656420666f7220616c6c00000060648201526084016105c2565b6106638383611292565b505050565b60006106748284612241565b9392505050565b6106853382611300565b6106a15760405162461bcd60e51b81526004016105c29061214f565b61066383838361137e565b61066383838360405180602001604052806000815250610e6b565b606060006106d460075490565b905060008080805b8481101561076c5733600c60006106f4846001612241565b81526020810191909152604001600020600101546001600160a01b03161480610747575033600c6000610728846001612241565b81526020810191909152604001600020600201546001600160a01b0316145b1561075a57610757600185612241565b93505b80610764816122c0565b9150506106dc565b5060008367ffffffffffffffff81111561079657634e487b7160e01b600052604160045260246000fd5b6040519080825280602002602001820160405280156107cf57816020015b6107bc611c7b565b8152602001906001900390816107b45790505b50905060005b858110156109005733600c60006107ed846001612241565b81526020810191909152604001600020600101546001600160a01b03161480610840575033600c6000610821846001612241565b81526020810191909152604001600020600201546001600160a01b0316145b156108ee57610850816001612241565b6000818152600c6020908152604091829020825160a0810184528154815260018201546001600160a01b039081169382019390935260028201549092169282019290925260038201546060820152600482015460ff1615156080820152845192955090918490879081106108d457634e487b7160e01b600052603260045260246000fd5b60209081029190910101526108ea600186612241565b9450505b806108f8816122c0565b9150506107d5565b5095945050505050565b6000818152600260205260408120546001600160a01b03168061048e5760405162461bcd60e51b8152602060048201526018602482015277115490cdcc8c4e881a5b9d985b1a59081d1bdad95b88125160421b60448201526064016105c2565b6009546040516330f2439960e21b815233600482015260009182916001600160a01b039091169063c3c90e649060240160206040518083038186803b1580156109b257600080fd5b505afa1580156109c6573d6000803e3d6000fd5b505050506040513d601f19601f820116820180604052508101906109ea9190611fdd565b90506109f7816001612241565b9050662386f26fc100006002821415610a105792915050565b600b549250505090565b60006001600160a01b038216610a845760405162461bcd60e51b815260206004820152602960248201527f4552433732313a2061646472657373207a65726f206973206e6f7420612076616044820152683634b21037bbb732b960b91b60648201526084016105c2565b506001600160a01b031660009081526003602052604090205490565b60095460405163389f6db560e01b81523360048201526000916001600160a01b03169063389f6db590602401600060405180830381600087803b158015610ae657600080fd5b505af1158015610afa573d6000803e3d6000fd5b50506009546040516330f2439960e21b8152336004820152600093506001600160a01b03909116915063c3c90e649060240160206040518083038186803b158015610b4457600080fd5b505afa158015610b58573d6000803e3d6000fd5b505050506040513d601f19601f82011682018060405250810190610b7c9190611fdd565b905080600214610be357600b543414610be35760405162461bcd60e51b815260206004820152602360248201527f486f706566756c6c792073656e64696e672074686520636f727265637420707260448201526269636560e81b60648201526084016105c2565b60008311610c3e5760405162461bcd60e51b815260206004820152602260248201527f4d616b652073757265207468652070726963652069736e2774206e6567617469604482015261766560f01b60648201526084016105c2565b610c4c600780546001019055565b6000610c5760075490565b9050610c6333826114e2565b610c6d81866114fc565b610c7781856115ce565b949350505050565b610c87611c7b565b506000908152600c6020908152604091829020825160a0810184528154815260018201546001600160a01b03908116938201939093526002820154909216928201929092526003820154606082015260049091015460ff161515608082015290565b6060600180546104a390612285565b6000818152600c6020526040902060038101546002909101546001600160a01b0316348214610d91576040805162461bcd60e51b81526020600482015260248101919091527f506c65617365207375626d6974207468652061736b696e67207072696365206960448201527f6e206f7264657220746f20636f6d706c6574652074686520707572636861736560648201526084016105c2565b6000838152600c6020526040902060048101805460ff1916600117905560020180546001600160a01b03191633179055610dcf600880546001019055565b610dda30338561137e565b610de4308461054d565b600a54600b546040516001600160a01b039092169181156108fc0291906000818181858888f19350505050158015610e20573d6000803e3d6000fd5b506040516001600160a01b038216903480156108fc02916000818181858888f19350505050158015610e56573d6000803e3d6000fd5b50505050565b610e673383836116b8565b5050565b610e753383611300565b610e915760405162461bcd60e51b81526004016105c29061214f565b610e5684848484611787565b600a546001600160a01b03163314610f055760405162461bcd60e51b815260206004820152602560248201527f4f6e6c7920746865206f776e65722063616e2063616c6c20746869732066756e60448201526431ba34b7b760d91b60648201526084016105c2565b600b55565b6060610f1582611230565b60008281526006602052604081208054610f2e90612285565b80601f0160208091040260200160405190810160405280929190818152602001828054610f5a90612285565b8015610fa75780601f10610f7c57610100808354040283529160200191610fa7565b820191906000526020600020905b815481529060010190602001808311610f8a57829003601f168201915b505050505090506000610fc560408051602081019091526000815290565b9050805160001415610fd8575092915050565b81511561100a578082604051602001610ff2929190612082565b60405160208183030381529060405292505050919050565b610c77846117ba565b61101b611c7b565b600061102660075490565b6000908152600c6020908152604091829020825160a0810184528154815260018201546001600160a01b03908116938201939093526002820154909216928201929092526003820154606082015260049091015460ff161515608082015292915050565b6060600061109760075490565b905060008167ffffffffffffffff8111156110c257634e487b7160e01b600052604160045260246000fd5b6040519080825280602002602001820160405280156110fb57816020015b6110e8611c7b565b8152602001906001900390816110e05790505b509050600080805b848110156111c657611116816001612241565b6000818152600c6020908152604091829020825160a0810184528154815260018201546001600160a01b039081169382019390935260028201549092169282019290925260038201546060820152600482015460ff16151560808201528651929450909186908690811061119a57634e487b7160e01b600052603260045260246000fd5b60209081029190910101526111b0600185612241565b93505080806111be906122c0565b915050611103565b5091949350505050565b60006111db60075490565b905090565b60006001600160e01b031982166380ac58cd60e01b148061121157506001600160e01b03198216635b5e139f60e01b145b8061048e57506301ffc9a760e01b6001600160e01b031983161461048e565b6000818152600260205260409020546001600160a01b031661128f5760405162461bcd60e51b8152602060048201526018602482015277115490cdcc8c4e881a5b9d985b1a59081d1bdad95b88125160421b60448201526064016105c2565b50565b600081815260046020526040902080546001600160a01b0319166001600160a01b03841690811790915581906112c78261090a565b6001600160a01b03167f8c5be1e5ebec7d5bd14f71427d1e84f3dd0314c0f7b2291e5b200ac8c7c3b92560405160405180910390a45050565b60008061130c8361090a565b9050806001600160a01b0316846001600160a01b0316148061135357506001600160a01b0380821660009081526005602090815260408083209388168352929052205460ff165b80610c775750836001600160a01b031661136c84610526565b6001600160a01b031614949350505050565b826001600160a01b03166113918261090a565b6001600160a01b0316146113b75760405162461bcd60e51b81526004016105c2906121ee565b6001600160a01b0382166114195760405162461bcd60e51b8152602060048201526024808201527f4552433732313a207472616e7366657220746f20746865207a65726f206164646044820152637265737360e01b60648201526084016105c2565b826001600160a01b031661142c8261090a565b6001600160a01b0316146114525760405162461bcd60e51b81526004016105c2906121ee565b600081815260046020908152604080832080546001600160a01b03199081169091556001600160a01b0387811680865260038552838620805460001901905590871680865283862080546001019055868652600290945282852080549092168417909155905184937fddf252ad1be2c89b69c2b068fc378daa952ba7f163c4a11628f55a4df523b3ef91a4505050565b610e6782826040518060200160405280600081525061182d565b6000828152600260205260409020546001600160a01b03166115775760405162461bcd60e51b815260206004820152602e60248201527f45524337323155524953746f726167653a2055524920736574206f66206e6f6e60448201526d32bc34b9ba32b73a103a37b5b2b760911b60648201526084016105c2565b6000828152600660209081526040909120825161159692840190611ca9565b506040518281527ff8e1a15aba9398e019f0b49df1a4fde98ee17ae345cb5f6b5e2c27f5033e8ce79060200160405180910390a15050565b6040805160a081018252838152306020808301828152338486018181526060860188815260016080880181815260008c8152600c9097529890952096518755925193860180546001600160a01b039586166001600160a01b03199182161790915590516002870180549190951691161790925551600384015592516004909201805492151560ff199093169290921790915561166b91908461137e565b604080513081523360208201529081018290526001606082015282907f9339409317fd01fabff48b703019016f49159bacc801ae872d2ca637d226e4c09060800160405180910390a25050565b816001600160a01b0316836001600160a01b0316141561171a5760405162461bcd60e51b815260206004820152601960248201527f4552433732313a20617070726f766520746f2063616c6c65720000000000000060448201526064016105c2565b6001600160a01b03838116600081815260056020908152604080832094871680845294825291829020805460ff191686151590811790915591519182527f17307eab39ab6107e8899845ad3d59bd9653f200f220920489ca2b5937696c31910160405180910390a3505050565b61179284848461137e565b61179e84848484611860565b610e565760405162461bcd60e51b81526004016105c29061219c565b60606117c582611230565b60006117dc60408051602081019091526000815290565b905060008151116117fc5760405180602001604052806000815250610674565b806118068461196d565b604051602001611817929190612082565b6040516020818303038152906040529392505050565b6118378383611a18565b6118446000848484611860565b6106635760405162461bcd60e51b81526004016105c29061219c565b60006001600160a01b0384163b1561196257604051630a85bd0160e11b81526001600160a01b0385169063150b7a02906118a49033908990889088906004016120b1565b602060405180830381600087803b1580156118be57600080fd5b505af19250505080156118ee575060408051601f3d908101601f191682019092526118eb91810190611f53565b60015b611948573d80801561191c576040519150601f19603f3d011682016040523d82523d6000602084013e611921565b606091505b5080516119405760405162461bcd60e51b81526004016105c29061219c565b805181602001fd5b6001600160e01b031916630a85bd0160e11b149050610c77565b506001949350505050565b6060600061197a83611ba3565b600101905060008167ffffffffffffffff8111156119a857634e487b7160e01b600052604160045260246000fd5b6040519080825280601f01601f1916602001820160405280156119d2576020820181803683370190505b5090508181016020015b600019016f181899199a1a9b1b9c1cb0b131b232b360811b600a86061a8153600a8504945084611a0b57611a10565b6119dc565b509392505050565b6001600160a01b038216611a6e5760405162461bcd60e51b815260206004820181905260248201527f4552433732313a206d696e7420746f20746865207a65726f206164647265737360448201526064016105c2565b6000818152600260205260409020546001600160a01b031615611ad35760405162461bcd60e51b815260206004820152601c60248201527f4552433732313a20746f6b656e20616c7265616479206d696e7465640000000060448201526064016105c2565b6000818152600260205260409020546001600160a01b031615611b385760405162461bcd60e51b815260206004820152601c60248201527f4552433732313a20746f6b656e20616c7265616479206d696e7465640000000060448201526064016105c2565b6001600160a01b038216600081815260036020908152604080832080546001019055848352600290915280822080546001600160a01b0319168417905551839291907fddf252ad1be2c89b69c2b068fc378daa952ba7f163c4a11628f55a4df523b3ef908290a45050565b60008072184f03e93ff9f4daa797ed6e38ed64bf6a1f0160401b8310611be25772184f03e93ff9f4daa797ed6e38ed64bf6a1f0160401b830492506040015b6d04ee2d6d415b85acef81000000008310611c0e576d04ee2d6d415b85acef8100000000830492506020015b662386f26fc100008310611c2c57662386f26fc10000830492506010015b6305f5e1008310611c44576305f5e100830492506008015b6127108310611c5857612710830492506004015b60648310611c6a576064830492506002015b600a831061048e5760010192915050565b6040805160a08101825260008082526020820181905291810182905260608101829052608081019190915290565b828054611cb590612285565b90600052602060002090601f016020900481019282611cd75760008555611d1d565b82601f10611cf057805160ff1916838001178555611d1d565b82800160010185558215611d1d579182015b82811115611d1d578251825591602001919060010190611d02565b50611d29929150611d2d565b5090565b5b80821115611d295760008155600101611d2e565b600067ffffffffffffffff80841115611d5d57611d5d6122f1565b604051601f8501601f19908116603f01168101908282118183101715611d8557611d856122f1565b81604052809350858152868686011115611d9e57600080fd5b858560208301376000602087830101525050509392505050565b80356001600160a01b0381168114611dcf57600080fd5b919050565b600060208284031215611de5578081fd5b61067482611db8565b60008060408385031215611e00578081fd5b611e0983611db8565b9150611e1760208401611db8565b90509250929050565b600080600060608486031215611e34578081fd5b611e3d84611db8565b9250611e4b60208501611db8565b9150604084013590509250925092565b60008060008060808587031215611e70578081fd5b611e7985611db8565b9350611e8760208601611db8565b925060408501359150606085013567ffffffffffffffff811115611ea9578182fd5b8501601f81018713611eb9578182fd5b611ec887823560208401611d42565b91505092959194509250565b60008060408385031215611ee6578182fd5b611eef83611db8565b915060208301358015158114611f03578182fd5b809150509250929050565b60008060408385031215611f20578182fd5b611f2983611db8565b946020939093013593505050565b600060208284031215611f48578081fd5b813561067481612307565b600060208284031215611f64578081fd5b815161067481612307565b60008060408385031215611f81578182fd5b823567ffffffffffffffff811115611f97578283fd5b8301601f81018513611fa7578283fd5b611fb685823560208401611d42565b95602094909401359450505050565b600060208284031215611fd6578081fd5b5035919050565b600060208284031215611fee578081fd5b5051919050565b60008060408385031215612007578182fd5b50508035926020909101359150565b6000815180845261202e816020860160208601612259565b601f01601f19169290920160200192915050565b805182526020808201516001600160a01b039081169184019190915260408083015190911690830152606080820151908301526080908101511515910152565b60008351612094818460208801612259565b8351908301906120a8818360208801612259565b01949350505050565b6001600160a01b03858116825284166020820152604081018390526080606082018190526000906120e490830184612016565b9695505050505050565b6020808252825182820181905260009190848201906040850190845b818110156121305761211d838551612042565b9284019260a0929092019160010161210a565b50909695505050505050565b6020815260006106746020830184612016565b6020808252602d908201527f4552433732313a2063616c6c6572206973206e6f7420746f6b656e206f776e6560408201526c1c881bdc88185c1c1c9bdd9959609a1b606082015260800190565b60208082526032908201527f4552433732313a207472616e7366657220746f206e6f6e20455243373231526560408201527131b2b4bb32b91034b6b83632b6b2b73a32b960711b606082015260800190565b60208082526025908201527f4552433732313a207472616e736665722066726f6d20696e636f72726563742060408201526437bbb732b960d91b606082015260800190565b60a0810161048e8284612042565b60008219821115612254576122546122db565b500190565b60005b8381101561227457818101518382015260200161225c565b83811115610e565750506000910152565b600181811c9082168061229957607f821691505b602082108114156122ba57634e487b7160e01b600052602260045260246000fd5b50919050565b60006000198214156122d4576122d46122db565b5060010190565b634e487b7160e01b600052601160045260246000fd5b634e487b7160e01b600052604160045260246000fd5b6001600160e01b03198116811461128f57600080fdfea264697066735822122005f616fe142547327e7d244de60ba11cad861aa1d0faff462f4ab7b4f0b7355664736f6c63430008040033608060405234801561001057600080fd5b506003600055610132806100256000396000f3fe6080604052348015600f57600080fd5b506004361060325760003560e01c8063389f6db5146037578063c3c90e64146048575b600080fd5b6046604236600460aa565b6080565b005b606e605336600460aa565b6001600160a01b031660009081526001602052604090205490565b60405190815260200160405180910390f35b6001600160a01b038116600090815260016020526040812080549160a28360d6565b919050555050565b60006020828403121560ba578081fd5b81356001600160a01b038116811460cf578182fd5b9392505050565b600060001982141560f557634e487b7160e01b81526011600452602481fd5b506001019056fea2646970667358221220bb73b07b2d717336919656ba6b4acaa521272e27051f78ad7caf56cabfdb71d464736f6c63430008040033",
  "linkReferences": {},
  "deployedLinkReferences": {}
}