{
  "_format": "hh-sol-artifact-1",
  "contractName": "NFTMarketplaceReward",
  "sourceName": "contracts/NFTMarketplaceReward.sol",
  "abi": [
    {
      "inputs": [],
      "stateMutability": "nonpayable",
      "type": "constructor"
    },
    {
      "inputs": [
        {
          "internalType": "address",
          "name": "seller",
          "type": "address"
        }
      ],
      "name": "checkReward",
      "outputs": [
        {
          "internalType": "bool",
          "name": "",
          "type": "bool"
        }
      ],
      "stateMutability": "view",
      "type": "function"
    },
    {
      "inputs": [
        {
          "internalType": "address",
          "name": "seller",
          "type": "address"
        }
      ],
      "name": "increaseSellerNFTCount",
      "outputs": [
        {
          "internalType": "bool",
          "name": "",
          "type": "bool"
        }
      ],
      "stateMutability": "nonpayable",
      "type": "function"
    }
  ],
  "bytecode": "0x608060405234801561001057600080fd5b506003600055610160806100256000396000f3fe608060405234801561001057600080fd5b50600436106100365760003560e01c8063389f6db51461003b578063c3c90e6414610062575b600080fd5b61004e6100493660046100d5565b610075565b604051901515815260200160405180910390f35b61004e6100703660046100d5565b6100a4565b6001600160a01b03811660009081526001602052604081208054908261009a83610103565b9190505550919050565b6001600160a01b038116600090815260016020526040812054600214156100cd57506001919050565b506000919050565b6000602082840312156100e6578081fd5b81356001600160a01b03811681146100fc578182fd5b9392505050565b600060001982141561012357634e487b7160e01b81526011600452602481fd5b506001019056fea2646970667358221220b43fde2d7457fcfd56dbe8657fa8124750fae75191679552bc058ad1d63e97ca64736f6c63430008040033",
  "linkReferences": {},
  "deployedLinkReferences": {}
}