{
  "_format": "hh-sol-artifact-1",
  "contractName": "NFTMarketplaceReward",
  "sourceName": "contracts/NFTMarketplaceReward.sol",
  "abi": [
    {
      "inputs": [],
      "stateMutability": "nonpayable",
      "type": "constructor"
    },
    {
      "inputs": [
        {
          "internalType": "address",
          "name": "seller",
          "type": "address"
        }
      ],
      "name": "checkReward",
      "outputs": [
        {
          "internalType": "uint256",
          "name": "",
          "type": "uint256"
        }
      ],
      "stateMutability": "view",
      "type": "function"
    },
    {
      "inputs": [
        {
          "internalType": "address",
          "name": "seller",
          "type": "address"
        }
      ],
      "name": "increaseSellerNFTCount",
      "outputs": [],
      "stateMutability": "nonpayable",
      "type": "function"
    }
  ],
  "bytecode": "0x608060405234801561001057600080fd5b506003600055610132806100256000396000f3fe6080604052348015600f57600080fd5b506004361060325760003560e01c8063389f6db5146037578063c3c90e64146048575b600080fd5b6046604236600460aa565b6080565b005b606e605336600460aa565b6001600160a01b031660009081526001602052604090205490565b60405190815260200160405180910390f35b6001600160a01b038116600090815260016020526040812080549160a28360d6565b919050555050565b60006020828403121560ba578081fd5b81356001600160a01b038116811460cf578182fd5b9392505050565b600060001982141560f557634e487b7160e01b81526011600452602481fd5b506001019056fea2646970667358221220bb73b07b2d717336919656ba6b4acaa521272e27051f78ad7caf56cabfdb71d464736f6c63430008040033",
  "linkReferences": {},
  "deployedLinkReferences": {}
}