{
  "_format": "hh-sol-artifact-1",
  "contractName": "NFTMarketplaceReward",
  "sourceName": "contracts/NFTMarketplaceReward.sol",
  "abi": [
    {
      "inputs": [
        {
          "internalType": "contract NFTMarketplace",
          "name": "_marketplace",
          "type": "address"
        }
      ],
      "stateMutability": "nonpayable",
      "type": "constructor"
    },
    {
      "anonymous": false,
      "inputs": [
        {
          "indexed": true,
          "internalType": "address",
          "name": "seller",
          "type": "address"
        },
        {
          "indexed": false,
          "internalType": "uint256",
          "name": "reward",
          "type": "uint256"
        }
      ],
      "name": "SellerRewarded",
      "type": "event"
    },
    {
      "inputs": [
        {
          "internalType": "address",
          "name": "seller",
          "type": "address"
        }
      ],
      "name": "checkAndReward",
      "outputs": [],
      "stateMutability": "nonpayable",
      "type": "function"
    }
  ],
  "bytecode": "0x608060405234801561001057600080fd5b506040516105c83803806105c883398101604081905261002f91610054565b600080546001600160a01b0319166001600160a01b0392909216919091179055610082565b600060208284031215610065578081fd5b81516001600160a01b038116811461007b578182fd5b9392505050565b610537806100916000396000f3fe608060405234801561001057600080fd5b506004361061002b5760003560e01c80639f38e7dd14610030575b600080fd5b61004361003e3660046102c8565b610045565b005b6000805460405163570c765b60e11b81526001600160a01b0384811660048301529091169063ae18ecb69060240160006040518083038186803b15801561008b57600080fd5b505afa15801561009f573d6000803e3d6000fd5b505050506040513d6000823e601f3d908101601f191682016040526100c791908101906102eb565b516001600160a01b0383166000908152600160205260409020549091506100ef600a82610467565b6100fa600a84610467565b11156102c357600061010d600a83610467565b610118600a85610467565b61012291906104a6565b61012d90600a610487565b6001600160a01b038086166000818152600160209081526040808320899055915482516368f1945f60e01b8152925195965092946108fc9493909316926368f1945f926004808201939291829003018186803b15801561018c57600080fd5b505afa1580156101a0573d6000803e3d6000fd5b505050506040513d601f19601f820116820180604052508101906101c491906103f5565b6101ce9084610487565b6040518115909202916000818181858888f193505050501580156101f6573d6000803e3d6000fd5b50836001600160a01b03167f97574ec65b2fcfc0a5e16b2fcb4a8bf3c0b62146b225c4f8a8e6be101682048460008054906101000a90046001600160a01b03166001600160a01b03166368f1945f6040518163ffffffff1660e01b815260040160206040518083038186803b15801561026e57600080fd5b505afa158015610282573d6000803e3d6000fd5b505050506040513d601f19601f820116820180604052508101906102a691906103f5565b6102b09084610487565b60405190815260200160405180910390a2505b505050565b6000602082840312156102d9578081fd5b81356102e4816104e9565b9392505050565b600060208083850312156102fd578182fd5b825167ffffffffffffffff80821115610314578384fd5b818501915085601f830112610327578384fd5b815181811115610339576103396104d3565b610347848260051b01610436565b818152848101925083850160a0808402860187018a1015610366578788fd5b8795505b838610156103e75780828b031215610380578788fd5b61038861040d565b8251815287830151610399816104e9565b818901526040838101516103ac816104e9565b908201526060838101519082015260808084015180151581146103cd578a8bfd5b90820152855260019590950194938601939081019061036a565b509098975050505050505050565b600060208284031215610406578081fd5b5051919050565b60405160a0810167ffffffffffffffff81118282101715610430576104306104d3565b60405290565b604051601f8201601f1916810167ffffffffffffffff8111828210171561045f5761045f6104d3565b604052919050565b60008261048257634e487b7160e01b81526012600452602481fd5b500490565b60008160001904831182151516156104a1576104a16104bd565b500290565b6000828210156104b8576104b86104bd565b500390565b634e487b7160e01b600052601160045260246000fd5b634e487b7160e01b600052604160045260246000fd5b6001600160a01b03811681146104fe57600080fd5b5056fea264697066735822122044e7b35a9df503b14c356a450085b0d0f418e3ba1fcdaea551d9ff401212f5f064736f6c63430008040033",
  "linkReferences": {},
  "deployedLinkReferences": {}
}